{
  "_format": "hh-sol-artifact-1",
  "contractName": "WillEscrow",
  "sourceName": "contracts/src/WillEscrow.sol",
  "abi": [
    {
      "anonymous": false,
      "inputs": [
        {
          "indexed": true,
          "internalType": "address",
          "name": "owner",
          "type": "address"
        },
        {
          "indexed": true,
          "internalType": "address",
          "name": "beneficiary",
          "type": "address"
        },
        {
          "indexed": false,
          "internalType": "uint256",
          "name": "amount",
          "type": "uint256"
        },
        {
          "indexed": false,
          "internalType": "uint256",
          "name": "releaseTime",
          "type": "uint256"
        }
      ],
      "name": "Deposit",
      "type": "event"
    },
    {
      "anonymous": false,
      "inputs": [
        {
          "indexed": true,
          "internalType": "address",
          "name": "beneficiary",
          "type": "address"
        },
        {
          "indexed": false,
          "internalType": "uint256",
          "name": "amount",
          "type": "uint256"
        }
      ],
      "name": "Release",
      "type": "event"
    },
    {
      "inputs": [
        {
          "internalType": "address",
          "name": "_beneficiary",
          "type": "address"
        },
        {
          "internalType": "uint256",
          "name": "_releaseTime",
          "type": "uint256"
        }
      ],
      "name": "deposit",
      "outputs": [],
      "stateMutability": "payable",
      "type": "function"
    },
    {
      "inputs": [
        {
          "internalType": "address",
          "name": "",
          "type": "address"
        }
      ],
      "name": "escrows",
      "outputs": [
        {
          "internalType": "address",
          "name": "beneficiary",
          "type": "address"
        },
        {
          "internalType": "uint256",
          "name": "releaseTime",
          "type": "uint256"
        },
        {
          "internalType": "uint256",
          "name": "amount",
          "type": "uint256"
        },
        {
          "internalType": "bool",
          "name": "released",
          "type": "bool"
        }
      ],
      "stateMutability": "view",
      "type": "function"
    },
    {
      "inputs": [
        {
          "internalType": "address",
          "name": "_owner",
          "type": "address"
        }
      ],
      "name": "getBalance",
      "outputs": [
        {
          "internalType": "uint256",
          "name": "",
          "type": "uint256"
        }
      ],
      "stateMutability": "view",
      "type": "function"
    },
    {
      "inputs": [
        {
          "internalType": "address",
          "name": "_owner",
          "type": "address"
        }
      ],
      "name": "getEscrowDetails",
      "outputs": [
        {
          "internalType": "address",
          "name": "beneficiary",
          "type": "address"
        },
        {
          "internalType": "uint256",
          "name": "releaseTime",
          "type": "uint256"
        },
        {
          "internalType": "uint256",
          "name": "amount",
          "type": "uint256"
        },
        {
          "internalType": "bool",
          "name": "released",
          "type": "bool"
        }
      ],
      "stateMutability": "view",
      "type": "function"
    },
    {
      "inputs": [
        {
          "internalType": "address",
          "name": "_owner",
          "type": "address"
        }
      ],
      "name": "releaseFunds",
      "outputs": [],
      "stateMutability": "nonpayable",
      "type": "function"
    }
  ],
  "bytecode": "0x608060405234801561001057600080fd5b50610ebc806100206000396000f3fe60806040526004361061004a5760003560e01c8063192e7a7b1461004f57806329415a5914610078578063477230b2146100b857806347e7ef24146100f8578063f8b2cb4f14610114575b600080fd5b34801561005b57600080fd5b50610076600480360381019061007191906108b2565b610151565b005b34801561008457600080fd5b5061009f600480360381019061009a91906108b2565b610435565b6040516100af9493929190610922565b60405180910390f35b3480156100c457600080fd5b506100df60048036038101906100da91906108b2565b6104ce565b6040516100ef9493929190610922565b60405180910390f35b610112600480360381019061010d9190610993565b61052b565b005b34801561012057600080fd5b5061013b600480360381019061013691906108b2565b610804565b60405161014891906109d3565b60405180910390f35b60008060008373ffffffffffffffffffffffffffffffffffffffff1673ffffffffffffffffffffffffffffffffffffffff168152602001908152602001600020905060008160020154116101da576040517f08c379a00000000000000000000000000000000000000000000000000000000081526004016101d190610a4b565b60405180910390fd5b8060010154421015610221576040517f08c379a000000000000000000000000000000000000000000000000000000000815260040161021890610ab7565b60405180910390fd5b8060000160009054906101000a900473ffffffffffffffffffffffffffffffffffffffff1673ffffffffffffffffffffffffffffffffffffffff163373ffffffffffffffffffffffffffffffffffffffff16146102b3576040517f08c379a00000000000000000000000000000000000000000000000000000000081526004016102aa90610b23565b60405180910390fd5b8060030160009054906101000a900460ff1615610305576040517f08c379a00000000000000000000000000000000000000000000000000000000081526004016102fc90610b8f565b60405180910390fd5b60008160020154905060018260030160006101000a81548160ff0219169083151502179055506000826002018190555060003373ffffffffffffffffffffffffffffffffffffffff168260405161035b90610be0565b60006040518083038185875af1925050503d8060008114610398576040519150601f19603f3d011682016040523d82523d6000602084013e61039d565b606091505b50509050806103e1576040517f08c379a00000000000000000000000000000000000000000000000000000000081526004016103d890610c41565b60405180910390fd5b3373ffffffffffffffffffffffffffffffffffffffff167ff6334794522b9db534a812aaae1af828a2e96aac68473b58e36d7d0bfd67477b8360405161042791906109d3565b60405180910390a250505050565b60008060008060008060008773ffffffffffffffffffffffffffffffffffffffff1673ffffffffffffffffffffffffffffffffffffffff16815260200190815260200160002090508060000160009054906101000a900473ffffffffffffffffffffffffffffffffffffffff16816001015482600201548360030160009054906101000a900460ff169450945094509450509193509193565b60006020528060005260406000206000915090508060000160009054906101000a900473ffffffffffffffffffffffffffffffffffffffff16908060010154908060020154908060030160009054906101000a900460ff16905084565b6000341161056e576040517f08c379a000000000000000000000000000000000000000000000000000000000815260040161056590610cad565b60405180910390fd5b600073ffffffffffffffffffffffffffffffffffffffff168273ffffffffffffffffffffffffffffffffffffffff16036105dd576040517f08c379a00000000000000000000000000000000000000000000000000000000081526004016105d490610d19565b60405180910390fd5b42811161061f576040517f08c379a000000000000000000000000000000000000000000000000000000000815260040161061690610dab565b60405180910390fd5b60008060003373ffffffffffffffffffffffffffffffffffffffff1673ffffffffffffffffffffffffffffffffffffffff16815260200190815260200160002060020154146106a3576040517f08c379a000000000000000000000000000000000000000000000000000000000815260040161069a90610e3d565b60405180910390fd5b60405180608001604052808373ffffffffffffffffffffffffffffffffffffffff168152602001828152602001348152602001600015158152506000803373ffffffffffffffffffffffffffffffffffffffff1673ffffffffffffffffffffffffffffffffffffffff16815260200190815260200160002060008201518160000160006101000a81548173ffffffffffffffffffffffffffffffffffffffff021916908373ffffffffffffffffffffffffffffffffffffffff160217905550602082015181600101556040820151816002015560608201518160030160006101000a81548160ff0219169083151502179055509050508173ffffffffffffffffffffffffffffffffffffffff163373ffffffffffffffffffffffffffffffffffffffff167fdcbc1c05240f31ff3ad067ef1ee35ce4997762752e3a095284754544f4c709d734846040516107f8929190610e5d565b60405180910390a35050565b60008060008373ffffffffffffffffffffffffffffffffffffffff1673ffffffffffffffffffffffffffffffffffffffff168152602001908152602001600020600201549050919050565b600080fd5b600073ffffffffffffffffffffffffffffffffffffffff82169050919050565b600061087f82610854565b9050919050565b61088f81610874565b811461089a57600080fd5b50565b6000813590506108ac81610886565b92915050565b6000602082840312156108c8576108c761084f565b5b60006108d68482850161089d565b91505092915050565b6108e881610874565b82525050565b6000819050919050565b610901816108ee565b82525050565b60008115159050919050565b61091c81610907565b82525050565b600060808201905061093760008301876108df565b61094460208301866108f8565b61095160408301856108f8565b61095e6060830184610913565b95945050505050565b610970816108ee565b811461097b57600080fd5b50565b60008135905061098d81610967565b92915050565b600080604083850312156109aa576109a961084f565b5b60006109b88582860161089d565b92505060206109c98582860161097e565b9150509250929050565b60006020820190506109e860008301846108f8565b92915050565b600082825260208201905092915050565b7f4e6f20657363726f7720666f756e640000000000000000000000000000000000600082015250565b6000610a35600f836109ee565b9150610a40826109ff565b602082019050919050565b60006020820190508181036000830152610a6481610a28565b9050919050565b7f52656c656173652074696d65206e6f7420726561636865640000000000000000600082015250565b6000610aa16018836109ee565b9150610aac82610a6b565b602082019050919050565b60006020820190508181036000830152610ad081610a94565b9050919050565b7f4f6e6c792062656e65666963696172792063616e2072656c6561736500000000600082015250565b6000610b0d601c836109ee565b9150610b1882610ad7565b602082019050919050565b60006020820190508181036000830152610b3c81610b00565b9050919050565b7f46756e647320616c72656164792072656c656173656400000000000000000000600082015250565b6000610b796016836109ee565b9150610b8482610b43565b602082019050919050565b60006020820190508181036000830152610ba881610b6c565b9050919050565b600081905092915050565b50565b6000610bca600083610baf565b9150610bd582610bba565b600082019050919050565b6000610beb82610bbd565b9150819050919050565b7f5472616e73666572206661696c65640000000000000000000000000000000000600082015250565b6000610c2b600f836109ee565b9150610c3682610bf5565b602082019050919050565b60006020820190508181036000830152610c5a81610c1e565b9050919050565b7f4d757374206465706f73697420736f6d65204554480000000000000000000000600082015250565b6000610c976015836109ee565b9150610ca282610c61565b602082019050919050565b60006020820190508181036000830152610cc681610c8a565b9050919050565b7f496e76616c69642062656e656669636961727920616464726573730000000000600082015250565b6000610d03601b836109ee565b9150610d0e82610ccd565b602082019050919050565b60006020820190508181036000830152610d3281610cf6565b9050919050565b7f52656c656173652074696d65206d75737420626520696e20746865206675747560008201527f7265000000000000000000000000000000000000000000000000000000000000602082015250565b6000610d956022836109ee565b9150610da082610d39565b604082019050919050565b60006020820190508181036000830152610dc481610d88565b9050919050565b7f457363726f7720616c72656164792065786973747320666f722074686973206160008201527f6464726573730000000000000000000000000000000000000000000000000000602082015250565b6000610e276026836109ee565b9150610e3282610dcb565b604082019050919050565b60006020820190508181036000830152610e5681610e1a565b9050919050565b6000604082019050610e7260008301856108f8565b610e7f60208301846108f8565b939250505056fea264697066735822122045f98915a4b486f1a69d3c36dffbecf17e206c20b77817bf098e4ad9de4ef83564736f6c63430008130033",
  "linkReferences": {},
  "deployedLinkReferences": {}
}