{
  "_format": "hh-sol-artifact-1",
  "contractName": "WillEscrow",
  "sourceName": "contracts/src/WillEscrow.sol",
  "abi": [
    {
      "anonymous": false,
      "inputs": [
        {
          "indexed": true,
          "internalType": "address",
          "name": "owner",
          "type": "address"
        },
        {
          "indexed": true,
          "internalType": "address",
          "name": "beneficiary",
          "type": "address"
        },
        {
          "indexed": false,
          "internalType": "uint96",
          "name": "amount",
          "type": "uint96"
        },
        {
          "indexed": false,
          "internalType": "uint96",
          "name": "releaseTime",
          "type": "uint96"
        }
      ],
      "name": "Deposit",
      "type": "event"
    },
    {
      "anonymous": false,
      "inputs": [
        {
          "indexed": true,
          "internalType": "address",
          "name": "beneficiary",
          "type": "address"
        },
        {
          "indexed": false,
          "internalType": "uint96",
          "name": "amount",
          "type": "uint96"
        }
      ],
      "name": "Release",
      "type": "event"
    },
    {
      "inputs": [
        {
          "internalType": "address",
          "name": "_beneficiary",
          "type": "address"
        },
        {
          "internalType": "uint96",
          "name": "_releaseTime",
          "type": "uint96"
        }
      ],
      "name": "createEscrow",
      "outputs": [],
      "stateMutability": "payable",
      "type": "function"
    },
    {
      "inputs": [
        {
          "internalType": "address",
          "name": "",
          "type": "address"
        }
      ],
      "name": "escrows",
      "outputs": [
        {
          "internalType": "address",
          "name": "beneficiary",
          "type": "address"
        },
        {
          "internalType": "uint96",
          "name": "amount",
          "type": "uint96"
        },
        {
          "internalType": "uint96",
          "name": "releaseTime",
          "type": "uint96"
        },
        {
          "internalType": "bool",
          "name": "released",
          "type": "bool"
        }
      ],
      "stateMutability": "view",
      "type": "function"
    },
    {
      "inputs": [
        {
          "internalType": "address",
          "name": "_owner",
          "type": "address"
        }
      ],
      "name": "getBalance",
      "outputs": [
        {
          "internalType": "uint96",
          "name": "",
          "type": "uint96"
        }
      ],
      "stateMutability": "view",
      "type": "function"
    },
    {
      "inputs": [
        {
          "internalType": "address",
          "name": "_owner",
          "type": "address"
        }
      ],
      "name": "getEscrowDetails",
      "outputs": [
        {
          "internalType": "address",
          "name": "beneficiary",
          "type": "address"
        },
        {
          "internalType": "uint96",
          "name": "releaseTime",
          "type": "uint96"
        },
        {
          "internalType": "uint96",
          "name": "amount",
          "type": "uint96"
        },
        {
          "internalType": "bool",
          "name": "released",
          "type": "bool"
        }
      ],
      "stateMutability": "view",
      "type": "function"
    },
    {
      "inputs": [
        {
          "internalType": "address",
          "name": "_owner",
          "type": "address"
        }
      ],
      "name": "releaseFunds",
      "outputs": [],
      "stateMutability": "nonpayable",
      "type": "function"
    }
  ],
  "bytecode": "0x608060405234801561001057600080fd5b5061107e806100206000396000f3fe60806040526004361061004a5760003560e01c8063192e7a7b1461004f57806329415a5914610078578063477230b2146100b8578063ead77e8f146100f8578063f8b2cb4f14610114575b600080fd5b34801561005b57600080fd5b5061007660048036038101906100719190610a8c565b610151565b005b34801561008457600080fd5b5061009f600480360381019061009a9190610a8c565b6104df565b6040516100af9493929190610b0a565b60405180910390f35b3480156100c457600080fd5b506100df60048036038101906100da9190610a8c565b6105a8565b6040516100ef9493929190610b0a565b60405180910390f35b610112600480360381019061010d9190610b7b565b610635565b005b34801561012057600080fd5b5061013b60048036038101906101369190610a8c565b6109c6565b6040516101489190610bbb565b60405180910390f35b60008060008373ffffffffffffffffffffffffffffffffffffffff1673ffffffffffffffffffffffffffffffffffffffff168152602001908152602001600020905060008160000160149054906101000a90046bffffffffffffffffffffffff166bffffffffffffffffffffffff1611610200576040517f08c379a00000000000000000000000000000000000000000000000000000000081526004016101f790610c33565b60405180910390fd5b8060010160009054906101000a90046bffffffffffffffffffffffff166bffffffffffffffffffffffff16426bffffffffffffffffffffffff16101561027b576040517f08c379a000000000000000000000000000000000000000000000000000000000815260040161027290610c9f565b60405180910390fd5b8060000160009054906101000a900473ffffffffffffffffffffffffffffffffffffffff1673ffffffffffffffffffffffffffffffffffffffff163373ffffffffffffffffffffffffffffffffffffffff161461030d576040517f08c379a000000000000000000000000000000000000000000000000000000000815260040161030490610d0b565b60405180910390fd5b80600101600c9054906101000a900460ff161561035f576040517f08c379a000000000000000000000000000000000000000000000000000000000815260040161035690610d77565b60405180910390fd5b60008160000160149054906101000a90046bffffffffffffffffffffffff169050600182600101600c6101000a81548160ff02191690831515021790555060008260000160146101000a8154816bffffffffffffffffffffffff02191690836bffffffffffffffffffffffff16021790555060003373ffffffffffffffffffffffffffffffffffffffff16826bffffffffffffffffffffffff1660405161040590610dc8565b60006040518083038185875af1925050503d8060008114610442576040519150601f19603f3d011682016040523d82523d6000602084013e610447565b606091505b505090508061048b576040517f08c379a000000000000000000000000000000000000000000000000000000000815260040161048290610e29565b60405180910390fd5b3373ffffffffffffffffffffffffffffffffffffffff167fd33234ec711f21ac050558a2c56bbfb1128202472d72eb269d0e2e0ed1bbc509836040516104d19190610bbb565b60405180910390a250505050565b60008060008060008060008773ffffffffffffffffffffffffffffffffffffffff1673ffffffffffffffffffffffffffffffffffffffff16815260200190815260200160002090508060000160009054906101000a900473ffffffffffffffffffffffffffffffffffffffff168160010160009054906101000a90046bffffffffffffffffffffffff168260000160149054906101000a90046bffffffffffffffffffffffff1683600101600c9054906101000a900460ff169450945094509450509193509193565b60006020528060005260406000206000915090508060000160009054906101000a900473ffffffffffffffffffffffffffffffffffffffff16908060000160149054906101000a90046bffffffffffffffffffffffff16908060010160009054906101000a90046bffffffffffffffffffffffff169080600101600c9054906101000a900460ff16905084565b60003411610678576040517f08c379a000000000000000000000000000000000000000000000000000000000815260040161066f90610e95565b60405180910390fd5b600073ffffffffffffffffffffffffffffffffffffffff168273ffffffffffffffffffffffffffffffffffffffff16036106e7576040517f08c379a00000000000000000000000000000000000000000000000000000000081526004016106de90610f01565b60405180910390fd5b426bffffffffffffffffffffffff16816bffffffffffffffffffffffff1611610745576040517f08c379a000000000000000000000000000000000000000000000000000000000815260040161073c90610f93565b60405180910390fd5b60008060003373ffffffffffffffffffffffffffffffffffffffff1673ffffffffffffffffffffffffffffffffffffffff16815260200190815260200160002060000160149054906101000a90046bffffffffffffffffffffffff166bffffffffffffffffffffffff16146107ef576040517f08c379a00000000000000000000000000000000000000000000000000000000081526004016107e690610fff565b60405180910390fd5b60405180608001604052808373ffffffffffffffffffffffffffffffffffffffff168152602001346bffffffffffffffffffffffff168152602001826bffffffffffffffffffffffff168152602001600015158152506000803373ffffffffffffffffffffffffffffffffffffffff1673ffffffffffffffffffffffffffffffffffffffff16815260200190815260200160002060008201518160000160006101000a81548173ffffffffffffffffffffffffffffffffffffffff021916908373ffffffffffffffffffffffffffffffffffffffff16021790555060208201518160000160146101000a8154816bffffffffffffffffffffffff02191690836bffffffffffffffffffffffff16021790555060408201518160010160006101000a8154816bffffffffffffffffffffffff02191690836bffffffffffffffffffffffff160217905550606082015181600101600c6101000a81548160ff0219169083151502179055509050508173ffffffffffffffffffffffffffffffffffffffff163373ffffffffffffffffffffffffffffffffffffffff167f9b11e540cf3256fce889317399340ba7bd67e98f3d93f016acb7576cd073de7034846040516109ba92919061101f565b60405180910390a35050565b60008060008373ffffffffffffffffffffffffffffffffffffffff1673ffffffffffffffffffffffffffffffffffffffff16815260200190815260200160002060000160149054906101000a90046bffffffffffffffffffffffff169050919050565b600080fd5b600073ffffffffffffffffffffffffffffffffffffffff82169050919050565b6000610a5982610a2e565b9050919050565b610a6981610a4e565b8114610a7457600080fd5b50565b600081359050610a8681610a60565b92915050565b600060208284031215610aa257610aa1610a29565b5b6000610ab084828501610a77565b91505092915050565b610ac281610a4e565b82525050565b60006bffffffffffffffffffffffff82169050919050565b610ae981610ac8565b82525050565b60008115159050919050565b610b0481610aef565b82525050565b6000608082019050610b1f6000830187610ab9565b610b2c6020830186610ae0565b610b396040830185610ae0565b610b466060830184610afb565b95945050505050565b610b5881610ac8565b8114610b6357600080fd5b50565b600081359050610b7581610b4f565b92915050565b60008060408385031215610b9257610b91610a29565b5b6000610ba085828601610a77565b9250506020610bb185828601610b66565b9150509250929050565b6000602082019050610bd06000830184610ae0565b92915050565b600082825260208201905092915050565b7f4e6f20657363726f7720666f756e640000000000000000000000000000000000600082015250565b6000610c1d600f83610bd6565b9150610c2882610be7565b602082019050919050565b60006020820190508181036000830152610c4c81610c10565b9050919050565b7f52656c656173652074696d65206e6f7420726561636865640000000000000000600082015250565b6000610c89601883610bd6565b9150610c9482610c53565b602082019050919050565b60006020820190508181036000830152610cb881610c7c565b9050919050565b7f4f6e6c792062656e65666963696172792063616e2072656c6561736500000000600082015250565b6000610cf5601c83610bd6565b9150610d0082610cbf565b602082019050919050565b60006020820190508181036000830152610d2481610ce8565b9050919050565b7f46756e647320616c72656164792072656c656173656400000000000000000000600082015250565b6000610d61601683610bd6565b9150610d6c82610d2b565b602082019050919050565b60006020820190508181036000830152610d9081610d54565b9050919050565b600081905092915050565b50565b6000610db2600083610d97565b9150610dbd82610da2565b600082019050919050565b6000610dd382610da5565b9150819050919050565b7f5472616e73666572206661696c65640000000000000000000000000000000000600082015250565b6000610e13600f83610bd6565b9150610e1e82610ddd565b602082019050919050565b60006020820190508181036000830152610e4281610e06565b9050919050565b7f4d757374206465706f73697420736f6d65204554480000000000000000000000600082015250565b6000610e7f601583610bd6565b9150610e8a82610e49565b602082019050919050565b60006020820190508181036000830152610eae81610e72565b9050919050565b7f496e76616c69642062656e656669636961727920616464726573730000000000600082015250565b6000610eeb601b83610bd6565b9150610ef682610eb5565b602082019050919050565b60006020820190508181036000830152610f1a81610ede565b9050919050565b7f52656c656173652074696d65206d75737420626520696e20746865206675747560008201527f7265000000000000000000000000000000000000000000000000000000000000602082015250565b6000610f7d602283610bd6565b9150610f8882610f21565b604082019050919050565b60006020820190508181036000830152610fac81610f70565b9050919050565b7f457363726f7720616c7265616479206578697374730000000000000000000000600082015250565b6000610fe9601583610bd6565b9150610ff482610fb3565b602082019050919050565b6000602082019050818103600083015261101881610fdc565b9050919050565b60006040820190506110346000830185610ae0565b6110416020830184610ae0565b939250505056fea26469706673582212202f9ed95144f4a25f269ffe9edf753712de49efffae3f5addb7bc520d4bcb65b264736f6c63430008130033",
  "linkReferences": {},
  "deployedLinkReferences": {}
}