{
  "_format": "hh-sol-artifact-1",
  "contractName": "WillEscrow",
  "sourceName": "contracts/src/WillEscrow.sol",
  "abi": [
    {
      "anonymous": false,
      "inputs": [
        {
          "indexed": true,
          "internalType": "address",
          "name": "owner",
          "type": "address"
        },
        {
          "indexed": false,
          "internalType": "uint96",
          "name": "newReleaseTime",
          "type": "uint96"
        }
      ],
      "name": "DeadlineUpdated",
      "type": "event"
    },
    {
      "anonymous": false,
      "inputs": [
        {
          "indexed": true,
          "internalType": "address",
          "name": "owner",
          "type": "address"
        },
        {
          "indexed": true,
          "internalType": "address",
          "name": "freelancer",
          "type": "address"
        }
      ],
      "name": "FreelancerAssigned",
      "type": "event"
    },
    {
      "anonymous": false,
      "inputs": [
        {
          "indexed": true,
          "internalType": "address",
          "name": "owner",
          "type": "address"
        },
        {
          "indexed": false,
          "internalType": "uint96",
          "name": "amount",
          "type": "uint96"
        }
      ],
      "name": "FundsRefunded",
      "type": "event"
    },
    {
      "anonymous": false,
      "inputs": [
        {
          "indexed": true,
          "internalType": "address",
          "name": "owner",
          "type": "address"
        },
        {
          "indexed": true,
          "internalType": "address",
          "name": "freelancer",
          "type": "address"
        },
        {
          "indexed": false,
          "internalType": "uint96",
          "name": "amount",
          "type": "uint96"
        }
      ],
      "name": "FundsReleased",
      "type": "event"
    },
    {
      "anonymous": false,
      "inputs": [
        {
          "indexed": true,
          "internalType": "address",
          "name": "owner",
          "type": "address"
        },
        {
          "indexed": false,
          "internalType": "uint96",
          "name": "amount",
          "type": "uint96"
        },
        {
          "indexed": false,
          "internalType": "uint96",
          "name": "releaseTime",
          "type": "uint96"
        },
        {
          "indexed": false,
          "internalType": "string",
          "name": "description",
          "type": "string"
        }
      ],
      "name": "JobPosted",
      "type": "event"
    },
    {
      "anonymous": false,
      "inputs": [
        {
          "indexed": true,
          "internalType": "address",
          "name": "owner",
          "type": "address"
        },
        {
          "indexed": false,
          "internalType": "string",
          "name": "submission",
          "type": "string"
        }
      ],
      "name": "WorkSubmitted",
      "type": "event"
    },
    {
      "anonymous": false,
      "inputs": [
        {
          "indexed": true,
          "internalType": "address",
          "name": "owner",
          "type": "address"
        },
        {
          "indexed": false,
          "internalType": "bool",
          "name": "isApproved",
          "type": "bool"
        }
      ],
      "name": "WorkVerified",
      "type": "event"
    },
    {
      "inputs": [
        {
          "internalType": "address",
          "name": "_owner",
          "type": "address"
        }
      ],
      "name": "applyForJob",
      "outputs": [],
      "stateMutability": "nonpayable",
      "type": "function"
    },
    {
      "inputs": [
        {
          "internalType": "address",
          "name": "_owner",
          "type": "address"
        }
      ],
      "name": "getJobDetails",
      "outputs": [
        {
          "internalType": "address",
          "name": "owner",
          "type": "address"
        },
        {
          "internalType": "uint96",
          "name": "amount",
          "type": "uint96"
        },
        {
          "internalType": "uint96",
          "name": "releaseTime",
          "type": "uint96"
        },
        {
          "internalType": "bool",
          "name": "isOpen",
          "type": "bool"
        },
        {
          "internalType": "bool",
          "name": "isCompleted",
          "type": "bool"
        },
        {
          "internalType": "address",
          "name": "freelancer",
          "type": "address"
        },
        {
          "internalType": "string",
          "name": "description",
          "type": "string"
        },
        {
          "internalType": "string",
          "name": "submission",
          "type": "string"
        },
        {
          "internalType": "bool",
          "name": "isVerified",
          "type": "bool"
        },
        {
          "internalType": "bool",
          "name": "isApproved",
          "type": "bool"
        }
      ],
      "stateMutability": "view",
      "type": "function"
    },
    {
      "inputs": [
        {
          "internalType": "address",
          "name": "",
          "type": "address"
        }
      ],
      "name": "jobs",
      "outputs": [
        {
          "internalType": "address",
          "name": "owner",
          "type": "address"
        },
        {
          "internalType": "uint96",
          "name": "amount",
          "type": "uint96"
        },
        {
          "internalType": "uint96",
          "name": "releaseTime",
          "type": "uint96"
        },
        {
          "internalType": "bool",
          "name": "isOpen",
          "type": "bool"
        },
        {
          "internalType": "bool",
          "name": "isCompleted",
          "type": "bool"
        },
        {
          "internalType": "address",
          "name": "freelancer",
          "type": "address"
        },
        {
          "internalType": "string",
          "name": "description",
          "type": "string"
        },
        {
          "internalType": "string",
          "name": "submission",
          "type": "string"
        },
        {
          "internalType": "bool",
          "name": "isVerified",
          "type": "bool"
        },
        {
          "internalType": "bool",
          "name": "isApproved",
          "type": "bool"
        }
      ],
      "stateMutability": "view",
      "type": "function"
    },
    {
      "inputs": [
        {
          "internalType": "uint96",
          "name": "_releaseTime",
          "type": "uint96"
        },
        {
          "internalType": "string",
          "name": "_description",
          "type": "string"
        }
      ],
      "name": "postJob",
      "outputs": [],
      "stateMutability": "payable",
      "type": "function"
    },
    {
      "inputs": [
        {
          "internalType": "string",
          "name": "_submission",
          "type": "string"
        }
      ],
      "name": "submitWork",
      "outputs": [],
      "stateMutability": "nonpayable",
      "type": "function"
    },
    {
      "inputs": [
        {
          "internalType": "uint96",
          "name": "_newReleaseTime",
          "type": "uint96"
        }
      ],
      "name": "updateDeadline",
      "outputs": [],
      "stateMutability": "nonpayable",
      "type": "function"
    },
    {
      "inputs": [
        {
          "internalType": "address",
          "name": "_owner",
          "type": "address"
        },
        {
          "internalType": "bool",
          "name": "_isApproved",
          "type": "bool"
        }
      ],
      "name": "verifyWork",
      "outputs": [],
      "stateMutability": "nonpayable",
      "type": "function"
    }
  ],
  "bytecode": "0x608060405234801561001057600080fd5b506124a4806100206000396000f3fe6080604052600436106100705760003560e01c806340d684881161004e57806340d6848814610100578063ac1422ff14610129578063b18008d214610152578063fa3fbc961461019857610070565b8063095da7f61461007557806315fe7d721461009e5780633d1f0bb9146100ba575b600080fd5b34801561008157600080fd5b5061009c600480360381019061009791906117b9565b6101c1565b005b6100b860048036038101906100b39190611846565b6103b8565b005b3480156100c657600080fd5b506100e160048036038101906100dc9190611900565b6107ee565b6040516100f79a999897969594939291906119e5565b60405180910390f35b34801561010c57600080fd5b5061012760048036038101906101229190611a8f565b6109f6565b005b34801561013557600080fd5b50610150600480360381019061014b9190611ae8565b610bda565b005b34801561015e57600080fd5b5061017960048036038101906101749190611900565b611141565b60405161018f9a999897969594939291906119e5565b60405180910390f35b3480156101a457600080fd5b506101bf60048036038101906101ba9190611900565b6113a0565b005b60008060003373ffffffffffffffffffffffffffffffffffffffff1673ffffffffffffffffffffffffffffffffffffffff168152602001908152602001600020905060008160000160149054906101000a90046bffffffffffffffffffffffff166bffffffffffffffffffffffff1611610270576040517f08c379a000000000000000000000000000000000000000000000000000000000815260040161026790611b74565b60405180910390fd5b8060020160009054906101000a900473ffffffffffffffffffffffffffffffffffffffff1673ffffffffffffffffffffffffffffffffffffffff163373ffffffffffffffffffffffffffffffffffffffff1614610302576040517f08c379a00000000000000000000000000000000000000000000000000000000081526004016102f990611c06565b60405180910390fd5b80600101600d9054906101000a900460ff1615610354576040517f08c379a000000000000000000000000000000000000000000000000000000000815260040161034b90611c72565b60405180910390fd5b818160040190816103659190611ea8565b503373ffffffffffffffffffffffffffffffffffffffff167f7222637ff073e2f9674b0a63b756fa166f70893c7ab038c22845a6b4dbbc8abf836040516103ac9190611f7a565b60405180910390a25050565b600034116103fb576040517f08c379a00000000000000000000000000000000000000000000000000000000081526004016103f290611fe8565b60405180910390fd5b426bffffffffffffffffffffffff16826bffffffffffffffffffffffff1611610459576040517f08c379a00000000000000000000000000000000000000000000000000000000081526004016104509061207a565b60405180910390fd5b60008060003373ffffffffffffffffffffffffffffffffffffffff1673ffffffffffffffffffffffffffffffffffffffff16815260200190815260200160002060000160149054906101000a90046bffffffffffffffffffffffff166bffffffffffffffffffffffff1614610503576040517f08c379a00000000000000000000000000000000000000000000000000000000081526004016104fa906120e6565b60405180910390fd5b6040518061014001604052803373ffffffffffffffffffffffffffffffffffffffff168152602001346bffffffffffffffffffffffff168152602001836bffffffffffffffffffffffff168152602001600115158152602001600015158152602001600073ffffffffffffffffffffffffffffffffffffffff168152602001828152602001604051806020016040528060008152508152602001600015158152602001600015158152506000803373ffffffffffffffffffffffffffffffffffffffff1673ffffffffffffffffffffffffffffffffffffffff16815260200190815260200160002060008201518160000160006101000a81548173ffffffffffffffffffffffffffffffffffffffff021916908373ffffffffffffffffffffffffffffffffffffffff16021790555060208201518160000160146101000a8154816bffffffffffffffffffffffff02191690836bffffffffffffffffffffffff16021790555060408201518160010160006101000a8154816bffffffffffffffffffffffff02191690836bffffffffffffffffffffffff160217905550606082015181600101600c6101000a81548160ff021916908315150217905550608082015181600101600d6101000a81548160ff02191690831515021790555060a08201518160020160006101000a81548173ffffffffffffffffffffffffffffffffffffffff021916908373ffffffffffffffffffffffffffffffffffffffff16021790555060c082015181600301908161073c9190611ea8565b5060e08201518160040190816107529190611ea8565b506101008201518160050160006101000a81548160ff0219169083151502179055506101208201518160050160016101000a81548160ff0219169083151502179055509050503373ffffffffffffffffffffffffffffffffffffffff167f1744189476baf18ab898f42b910c4c73548726026873d55575065ade19101c613484846040516107e293929190612106565b60405180910390a25050565b60006020528060005260406000206000915090508060000160009054906101000a900473ffffffffffffffffffffffffffffffffffffffff16908060000160149054906101000a90046bffffffffffffffffffffffff16908060010160009054906101000a90046bffffffffffffffffffffffff169080600101600c9054906101000a900460ff169080600101600d9054906101000a900460ff16908060020160009054906101000a900473ffffffffffffffffffffffffffffffffffffffff16908060030180546108bf90611cc1565b80601f01602080910402602001604051908101604052809291908181526020018280546108eb90611cc1565b80156109385780601f1061090d57610100808354040283529160200191610938565b820191906000526020600020905b81548152906001019060200180831161091b57829003601f168201915b50505050509080600401805461094d90611cc1565b80601f016020809104026020016040519081016040528092919081815260200182805461097990611cc1565b80156109c65780601f1061099b576101008083540402835291602001916109c6565b820191906000526020600020905b8154815290600101906020018083116109a957829003601f168201915b5050505050908060050160009054906101000a900460ff16908060050160019054906101000a900460ff1690508a565b60008060003373ffffffffffffffffffffffffffffffffffffffff1673ffffffffffffffffffffffffffffffffffffffff168152602001908152602001600020905060008160000160149054906101000a90046bffffffffffffffffffffffff166bffffffffffffffffffffffff1611610aa5576040517f08c379a0000000000000000000000000000000000000000000000000000000008152600401610a9c90611b74565b60405180910390fd5b80600101600d9054906101000a900460ff1615610af7576040517f08c379a0000000000000000000000000000000000000000000000000000000008152600401610aee90611c72565b60405180910390fd5b426bffffffffffffffffffffffff16826bffffffffffffffffffffffff1611610b55576040517f08c379a0000000000000000000000000000000000000000000000000000000008152600401610b4c906121b6565b60405180910390fd5b818160010160006101000a8154816bffffffffffffffffffffffff02191690836bffffffffffffffffffffffff1602179055503373ffffffffffffffffffffffffffffffffffffffff167f977f8108d7c4596d5d7e058cef2c1f54d6dc31a725b489abf8c454d68d045ed883604051610bce91906121d6565b60405180910390a25050565b60008060008473ffffffffffffffffffffffffffffffffffffffff1673ffffffffffffffffffffffffffffffffffffffff168152602001908152602001600020905060008160000160149054906101000a90046bffffffffffffffffffffffff166bffffffffffffffffffffffff1611610c89576040517f08c379a0000000000000000000000000000000000000000000000000000000008152600401610c8090611b74565b60405180910390fd5b80600101600d9054906101000a900460ff1615610cdb576040517f08c379a0000000000000000000000000000000000000000000000000000000008152600401610cd290611c72565b60405180910390fd5b6000816004018054610cec90611cc1565b905011610d2e576040517f08c379a0000000000000000000000000000000000000000000000000000000008152600401610d259061223d565b60405180910390fd5b60018160050160006101000a81548160ff021916908315150217905550818160050160016101000a81548160ff0219169083151502179055508115610f4d57600181600101600d6101000a81548160ff02191690831515021790555060008160000160149054906101000a90046bffffffffffffffffffffffff16905060008260000160146101000a8154816bffffffffffffffffffffffff02191690836bffffffffffffffffffffffff16021790555060008260020160009054906101000a900473ffffffffffffffffffffffffffffffffffffffff1673ffffffffffffffffffffffffffffffffffffffff16826bffffffffffffffffffffffff16604051610e379061228e565b60006040518083038185875af1925050503d8060008114610e74576040519150601f19603f3d011682016040523d82523d6000602084013e610e79565b606091505b5050905080610ebd576040517f08c379a0000000000000000000000000000000000000000000000000000000008152600401610eb4906122ef565b60405180910390fd5b8260020160009054906101000a900473ffffffffffffffffffffffffffffffffffffffff1673ffffffffffffffffffffffffffffffffffffffff168573ffffffffffffffffffffffffffffffffffffffff167feb6b5f114039149f8c4d541a852ba3c1a2b5c1d1c2105aa350a50342206ec1b384604051610f3e91906121d6565b60405180910390a350506110ee565b600181600101600d6101000a81548160ff02191690831515021790555060008160000160149054906101000a90046bffffffffffffffffffffffff16905060008260000160146101000a8154816bffffffffffffffffffffffff02191690836bffffffffffffffffffffffff16021790555060008260000160009054906101000a900473ffffffffffffffffffffffffffffffffffffffff1673ffffffffffffffffffffffffffffffffffffffff16826bffffffffffffffffffffffff166040516110179061228e565b60006040518083038185875af1925050503d8060008114611054576040519150601f19603f3d011682016040523d82523d6000602084013e611059565b606091505b505090508061109d576040517f08c379a0000000000000000000000000000000000000000000000000000000008152600401611094906122ef565b60405180910390fd5b8473ffffffffffffffffffffffffffffffffffffffff167f0fa78afc9f4ae7e5900b4c4e19c983b5329ac646c9d37d5014d51cd14e9730b1836040516110e391906121d6565b60405180910390a250505b8273ffffffffffffffffffffffffffffffffffffffff167fa5d8c2ff53503170ecc6b363d1bc6d921495bbc7fbdd33c56eafb5dc8e70de1883604051611134919061230f565b60405180910390a2505050565b60008060008060008060608060008060008060008d73ffffffffffffffffffffffffffffffffffffffff1673ffffffffffffffffffffffffffffffffffffffff16815260200190815260200160002090508060000160009054906101000a900473ffffffffffffffffffffffffffffffffffffffff168160000160149054906101000a90046bffffffffffffffffffffffff168260010160009054906101000a90046bffffffffffffffffffffffff1683600101600c9054906101000a900460ff1684600101600d9054906101000a900460ff168560020160009054906101000a900473ffffffffffffffffffffffffffffffffffffffff1686600301876004018860050160009054906101000a900460ff168960050160019054906101000a900460ff1683805461127290611cc1565b80601f016020809104026020016040519081016040528092919081815260200182805461129e90611cc1565b80156112eb5780601f106112c0576101008083540402835291602001916112eb565b820191906000526020600020905b8154815290600101906020018083116112ce57829003601f168201915b505050505093508280546112fe90611cc1565b80601f016020809104026020016040519081016040528092919081815260200182805461132a90611cc1565b80156113775780601f1061134c57610100808354040283529160200191611377565b820191906000526020600020905b81548152906001019060200180831161135a57829003601f168201915b505050505092509a509a509a509a509a509a509a509a509a509a50509193959799509193959799565b60008060008373ffffffffffffffffffffffffffffffffffffffff1673ffffffffffffffffffffffffffffffffffffffff168152602001908152602001600020905060008160000160149054906101000a90046bffffffffffffffffffffffff166bffffffffffffffffffffffff161161144f576040517f08c379a000000000000000000000000000000000000000000000000000000000815260040161144690611b74565b60405180910390fd5b80600101600c9054906101000a900460ff166114a0576040517f08c379a000000000000000000000000000000000000000000000000000000000815260040161149790612376565b60405180910390fd5b600073ffffffffffffffffffffffffffffffffffffffff168160020160009054906101000a900473ffffffffffffffffffffffffffffffffffffffff1673ffffffffffffffffffffffffffffffffffffffff1614611533576040517f08c379a000000000000000000000000000000000000000000000000000000000815260040161152a906123e2565b60405180910390fd5b8173ffffffffffffffffffffffffffffffffffffffff163373ffffffffffffffffffffffffffffffffffffffff16036115a1576040517f08c379a00000000000000000000000000000000000000000000000000000000081526004016115989061244e565b60405180910390fd5b338160020160006101000a81548173ffffffffffffffffffffffffffffffffffffffff021916908373ffffffffffffffffffffffffffffffffffffffff160217905550600081600101600c6101000a81548160ff0219169083151502179055503373ffffffffffffffffffffffffffffffffffffffff168273ffffffffffffffffffffffffffffffffffffffff167f3bfe7e8b8ab95ba38680cb85c67916b1898d9c47bf4619ddc69e19297a7c025e60405160405180910390a35050565b6000604051905090565b600080fd5b600080fd5b600080fd5b600080fd5b6000601f19601f8301169050919050565b7f4e487b7100000000000000000000000000000000000000000000000000000000600052604160045260246000fd5b6116c68261167d565b810181811067ffffffffffffffff821117156116e5576116e461168e565b5b80604052505050565b60006116f861165f565b905061170482826116bd565b919050565b600067ffffffffffffffff8211156117245761172361168e565b5b61172d8261167d565b9050602081019050919050565b82818337600083830152505050565b600061175c61175784611709565b6116ee565b90508281526020810184848401111561177857611777611678565b5b61178384828561173a565b509392505050565b600082601f8301126117a05761179f611673565b5b81356117b0848260208601611749565b91505092915050565b6000602082840312156117cf576117ce611669565b5b600082013567ffffffffffffffff8111156117ed576117ec61166e565b5b6117f98482850161178b565b91505092915050565b60006bffffffffffffffffffffffff82169050919050565b61182381611802565b811461182e57600080fd5b50565b6000813590506118408161181a565b92915050565b6000806040838503121561185d5761185c611669565b5b600061186b85828601611831565b925050602083013567ffffffffffffffff81111561188c5761188b61166e565b5b6118988582860161178b565b9150509250929050565b600073ffffffffffffffffffffffffffffffffffffffff82169050919050565b60006118cd826118a2565b9050919050565b6118dd816118c2565b81146118e857600080fd5b50565b6000813590506118fa816118d4565b92915050565b60006020828403121561191657611915611669565b5b6000611924848285016118eb565b91505092915050565b611936816118c2565b82525050565b61194581611802565b82525050565b60008115159050919050565b6119608161194b565b82525050565b600081519050919050565b600082825260208201905092915050565b60005b838110156119a0578082015181840152602081019050611985565b60008484015250505050565b60006119b782611966565b6119c18185611971565b93506119d1818560208601611982565b6119da8161167d565b840191505092915050565b6000610140820190506119fb600083018d61192d565b611a08602083018c61193c565b611a15604083018b61193c565b611a22606083018a611957565b611a2f6080830189611957565b611a3c60a083018861192d565b81810360c0830152611a4e81876119ac565b905081810360e0830152611a6281866119ac565b9050611a72610100830185611957565b611a80610120830184611957565b9b9a5050505050505050505050565b600060208284031215611aa557611aa4611669565b5b6000611ab384828501611831565b91505092915050565b611ac58161194b565b8114611ad057600080fd5b50565b600081359050611ae281611abc565b92915050565b60008060408385031215611aff57611afe611669565b5b6000611b0d858286016118eb565b9250506020611b1e85828601611ad3565b9150509250929050565b7f4a6f6220646f6573206e6f742065786973740000000000000000000000000000600082015250565b6000611b5e601283611971565b9150611b6982611b28565b602082019050919050565b60006020820190508181036000830152611b8d81611b51565b9050919050565b7f4f6e6c792061737369676e656420667265656c616e6365722063616e2073756260008201527f6d697420776f726b000000000000000000000000000000000000000000000000602082015250565b6000611bf0602883611971565b9150611bfb82611b94565b604082019050919050565b60006020820190508181036000830152611c1f81611be3565b9050919050565b7f4a6f6220697320616c726561647920636f6d706c657465640000000000000000600082015250565b6000611c5c601883611971565b9150611c6782611c26565b602082019050919050565b60006020820190508181036000830152611c8b81611c4f565b9050919050565b7f4e487b7100000000000000000000000000000000000000000000000000000000600052602260045260246000fd5b60006002820490506001821680611cd957607f821691505b602082108103611cec57611ceb611c92565b5b50919050565b60008190508160005260206000209050919050565b60006020601f8301049050919050565b600082821b905092915050565b600060088302611d547fffffffffffffffffffffffffffffffffffffffffffffffffffffffffffffffff82611d17565b611d5e8683611d17565b95508019841693508086168417925050509392505050565b6000819050919050565b6000819050919050565b6000611da5611da0611d9b84611d76565b611d80565b611d76565b9050919050565b6000819050919050565b611dbf83611d8a565b611dd3611dcb82611dac565b848454611d24565b825550505050565b600090565b611de8611ddb565b611df3818484611db6565b505050565b5b81811015611e1757611e0c600082611de0565b600181019050611df9565b5050565b601f821115611e5c57611e2d81611cf2565b611e3684611d07565b81016020851015611e45578190505b611e59611e5185611d07565b830182611df8565b50505b505050565b600082821c905092915050565b6000611e7f60001984600802611e61565b1980831691505092915050565b6000611e988383611e6e565b9150826002028217905092915050565b611eb182611966565b67ffffffffffffffff811115611eca57611ec961168e565b5b611ed48254611cc1565b611edf828285611e1b565b600060209050601f831160018114611f125760008415611f00578287015190505b611f0a8582611e8c565b865550611f72565b601f198416611f2086611cf2565b60005b82811015611f4857848901518255600182019150602085019450602081019050611f23565b86831015611f655784890151611f61601f891682611e6e565b8355505b6001600288020188555050505b505050505050565b60006020820190508181036000830152611f9481846119ac565b905092915050565b7f4d757374206465706f73697420736f6d65204554480000000000000000000000600082015250565b6000611fd2601583611971565b9150611fdd82611f9c565b602082019050919050565b6000602082019050818103600083015261200181611fc5565b9050919050565b7f52656c656173652074696d65206d75737420626520696e20746865206675747560008201527f7265000000000000000000000000000000000000000000000000000000000000602082015250565b6000612064602283611971565b915061206f82612008565b604082019050919050565b6000602082019050818103600083015261209381612057565b9050919050565b7f4a6f6220616c7265616479206578697374730000000000000000000000000000600082015250565b60006120d0601283611971565b91506120db8261209a565b602082019050919050565b600060208201905081810360008301526120ff816120c3565b9050919050565b600060608201905061211b600083018661193c565b612128602083018561193c565b818103604083015261213a81846119ac565b9050949350505050565b7f4e65772072656c656173652074696d65206d75737420626520696e207468652060008201527f6675747572650000000000000000000000000000000000000000000000000000602082015250565b60006121a0602683611971565b91506121ab82612144565b604082019050919050565b600060208201905081810360008301526121cf81612193565b9050919050565b60006020820190506121eb600083018461193c565b92915050565b7f4e6f20776f726b207375626d6974746564207965740000000000000000000000600082015250565b6000612227601583611971565b9150612232826121f1565b602082019050919050565b600060208201905081810360008301526122568161221a565b9050919050565b600081905092915050565b50565b600061227860008361225d565b915061228382612268565b600082019050919050565b60006122998261226b565b9150819050919050565b7f5472616e73666572206661696c65640000000000000000000000000000000000600082015250565b60006122d9600f83611971565b91506122e4826122a3565b602082019050919050565b60006020820190508181036000830152612308816122cc565b9050919050565b60006020820190506123246000830184611957565b92915050565b7f4a6f62206973206e6f74206f70656e0000000000000000000000000000000000600082015250565b6000612360600f83611971565b915061236b8261232a565b602082019050919050565b6000602082019050818103600083015261238f81612353565b9050919050565b7f4a6f6220616c726561647920686173206120667265656c616e63657200000000600082015250565b60006123cc601c83611971565b91506123d782612396565b602082019050919050565b600060208201905081810360008301526123fb816123bf565b9050919050565b7f43616e6e6f74206170706c7920666f7220796f7572206f776e206a6f62000000600082015250565b6000612438601d83611971565b915061244382612402565b602082019050919050565b600060208201905081810360008301526124678161242b565b905091905056fea26469706673582212202df280aeaa3edab4dc854c80cd0cb5ef560981bd927a49d1215123eb1809151e64736f6c63430008130033",
  "linkReferences": {},
  "deployedLinkReferences": {}
}